{
  "_format": "hh-sol-artifact-1",
  "contractName": "DinoToken",
  "sourceName": "contracts/DinoToken.sol",
  "abi": [
    {
      "inputs": [],
      "stateMutability": "nonpayable",
      "type": "constructor"
    },
    {
      "anonymous": false,
      "inputs": [
        {
          "indexed": true,
          "internalType": "address",
          "name": "owner",
          "type": "address"
        },
        {
          "indexed": true,
          "internalType": "address",
          "name": "approved",
          "type": "address"
        },
        {
          "indexed": true,
          "internalType": "uint256",
          "name": "tokenId",
          "type": "uint256"
        }
      ],
      "name": "Approval",
      "type": "event"
    },
    {
      "anonymous": false,
      "inputs": [
        {
          "indexed": true,
          "internalType": "address",
          "name": "owner",
          "type": "address"
        },
        {
          "indexed": true,
          "internalType": "address",
          "name": "operator",
          "type": "address"
        },
        {
          "indexed": false,
          "internalType": "bool",
          "name": "approved",
          "type": "bool"
        }
      ],
      "name": "ApprovalForAll",
      "type": "event"
    },
    {
      "anonymous": false,
      "inputs": [
        {
          "indexed": true,
          "internalType": "address",
          "name": "previousOwner",
          "type": "address"
        },
        {
          "indexed": true,
          "internalType": "address",
          "name": "newOwner",
          "type": "address"
        }
      ],
      "name": "OwnershipTransferred",
      "type": "event"
    },
    {
      "anonymous": false,
      "inputs": [
        {
          "indexed": true,
          "internalType": "address",
          "name": "from",
          "type": "address"
        },
        {
          "indexed": true,
          "internalType": "address",
          "name": "to",
          "type": "address"
        },
        {
          "indexed": true,
          "internalType": "uint256",
          "name": "tokenId",
          "type": "uint256"
        }
      ],
      "name": "Transfer",
      "type": "event"
    },
    {
      "inputs": [
        {
          "internalType": "address",
          "name": "to",
          "type": "address"
        },
        {
          "internalType": "uint256",
          "name": "tokenId",
          "type": "uint256"
        }
      ],
      "name": "approve",
      "outputs": [],
      "stateMutability": "nonpayable",
      "type": "function"
    },
    {
      "inputs": [
        {
          "internalType": "address",
          "name": "owner",
          "type": "address"
        }
      ],
      "name": "balanceOf",
      "outputs": [
        {
          "internalType": "uint256",
          "name": "",
          "type": "uint256"
        }
      ],
      "stateMutability": "view",
      "type": "function"
    },
    {
      "inputs": [
        {
          "internalType": "uint256",
          "name": "tokenId",
          "type": "uint256"
        }
      ],
      "name": "getApproved",
      "outputs": [
        {
          "internalType": "address",
          "name": "",
          "type": "address"
        }
      ],
      "stateMutability": "view",
      "type": "function"
    },
    {
      "inputs": [
        {
          "internalType": "address",
          "name": "owner",
          "type": "address"
        },
        {
          "internalType": "address",
          "name": "operator",
          "type": "address"
        }
      ],
      "name": "isApprovedForAll",
      "outputs": [
        {
          "internalType": "bool",
          "name": "",
          "type": "bool"
        }
      ],
      "stateMutability": "view",
      "type": "function"
    },
    {
      "inputs": [],
      "name": "name",
      "outputs": [
        {
          "internalType": "string",
          "name": "",
          "type": "string"
        }
      ],
      "stateMutability": "view",
      "type": "function"
    },
    {
      "inputs": [],
      "name": "owner",
      "outputs": [
        {
          "internalType": "address",
          "name": "",
          "type": "address"
        }
      ],
      "stateMutability": "view",
      "type": "function"
    },
    {
      "inputs": [
        {
          "internalType": "uint256",
          "name": "tokenId",
          "type": "uint256"
        }
      ],
      "name": "ownerOf",
      "outputs": [
        {
          "internalType": "address",
          "name": "",
          "type": "address"
        }
      ],
      "stateMutability": "view",
      "type": "function"
    },
    {
      "inputs": [],
      "name": "renounceOwnership",
      "outputs": [],
      "stateMutability": "nonpayable",
      "type": "function"
    },
    {
      "inputs": [
        {
          "internalType": "address",
          "name": "to",
          "type": "address"
        },
        {
          "internalType": "string",
          "name": "uri",
          "type": "string"
        }
      ],
      "name": "safeMint",
      "outputs": [],
      "stateMutability": "nonpayable",
      "type": "function"
    },
    {
      "inputs": [
        {
          "internalType": "address",
          "name": "to",
          "type": "address"
        },
        {
          "internalType": "string",
          "name": "uri",
          "type": "string"
        }
      ],
      "name": "safeMintOwner",
      "outputs": [],
      "stateMutability": "nonpayable",
      "type": "function"
    },
    {
      "inputs": [
        {
          "internalType": "address",
          "name": "from",
          "type": "address"
        },
        {
          "internalType": "address",
          "name": "to",
          "type": "address"
        },
        {
          "internalType": "uint256",
          "name": "tokenId",
          "type": "uint256"
        }
      ],
      "name": "safeTransferFrom",
      "outputs": [],
      "stateMutability": "nonpayable",
      "type": "function"
    },
    {
      "inputs": [
        {
          "internalType": "address",
          "name": "from",
          "type": "address"
        },
        {
          "internalType": "address",
          "name": "to",
          "type": "address"
        },
        {
          "internalType": "uint256",
          "name": "tokenId",
          "type": "uint256"
        },
        {
          "internalType": "bytes",
          "name": "data",
          "type": "bytes"
        }
      ],
      "name": "safeTransferFrom",
      "outputs": [],
      "stateMutability": "nonpayable",
      "type": "function"
    },
    {
      "inputs": [
        {
          "internalType": "address",
          "name": "operator",
          "type": "address"
        },
        {
          "internalType": "bool",
          "name": "approved",
          "type": "bool"
        }
      ],
      "name": "setApprovalForAll",
      "outputs": [],
      "stateMutability": "nonpayable",
      "type": "function"
    },
    {
      "inputs": [
        {
          "internalType": "bytes4",
          "name": "interfaceId",
          "type": "bytes4"
        }
      ],
      "name": "supportsInterface",
      "outputs": [
        {
          "internalType": "bool",
          "name": "",
          "type": "bool"
        }
      ],
      "stateMutability": "view",
      "type": "function"
    },
    {
      "inputs": [],
      "name": "symbol",
      "outputs": [
        {
          "internalType": "string",
          "name": "",
          "type": "string"
        }
      ],
      "stateMutability": "view",
      "type": "function"
    },
    {
      "inputs": [
        {
          "internalType": "uint256",
          "name": "tokenId",
          "type": "uint256"
        }
      ],
      "name": "tokenURI",
      "outputs": [
        {
          "internalType": "string",
          "name": "",
          "type": "string"
        }
      ],
      "stateMutability": "view",
      "type": "function"
    },
    {
      "inputs": [
        {
          "internalType": "address",
          "name": "from",
          "type": "address"
        },
        {
          "internalType": "address",
          "name": "to",
          "type": "address"
        },
        {
          "internalType": "uint256",
          "name": "tokenId",
          "type": "uint256"
        }
      ],
      "name": "transferFrom",
      "outputs": [],
      "stateMutability": "nonpayable",
      "type": "function"
    },
    {
      "inputs": [
        {
          "internalType": "address",
          "name": "newOwner",
          "type": "address"
        }
      ],
      "name": "transferOwnership",
      "outputs": [],
      "stateMutability": "nonpayable",
      "type": "function"
    }
  ],
  "bytecode": "0x60806040523480156200001157600080fd5b506040518060400160405280600981526020017f44696e6f546f6b656e00000000000000000000000000000000000000000000008152506040518060400160405280600381526020017f44544b0000000000000000000000000000000000000000000000000000000000815250816000908051906020019062000096929190620001a6565b508060019080519060200190620000af929190620001a6565b505050620000d2620000c6620000d860201b60201c565b620000e060201b60201c565b620002bb565b600033905090565b6000600760009054906101000a900473ffffffffffffffffffffffffffffffffffffffff16905081600760006101000a81548173ffffffffffffffffffffffffffffffffffffffff021916908373ffffffffffffffffffffffffffffffffffffffff1602179055508173ffffffffffffffffffffffffffffffffffffffff168173ffffffffffffffffffffffffffffffffffffffff167f8be0079c531659141344cd1fd0a4f28419497f9722a3daafe3b4186f6b6457e060405160405180910390a35050565b828054620001b49062000285565b90600052602060002090601f016020900481019282620001d8576000855562000224565b82601f10620001f357805160ff191683800117855562000224565b8280016001018555821562000224579182015b828111156200022357825182559160200191906001019062000206565b5b50905062000233919062000237565b5090565b5b808211156200025257600081600090555060010162000238565b5090565b7f4e487b7100000000000000000000000000000000000000000000000000000000600052602260045260246000fd5b600060028204905060018216806200029e57607f821691505b60208210811415620002b557620002b462000256565b5b50919050565b612cd880620002cb6000396000f3fe608060405234801561001057600080fd5b50600436106101165760003560e01c80638da5cb5b116100a2578063b88d4fde11610071578063b88d4fde146102cb578063c87b56dd146102e7578063d204c45e14610317578063e985e9c514610333578063f2fde38b1461036357610116565b80638da5cb5b1461025757806395d89b4114610275578063a22cb46514610293578063b4af02db146102af57610116565b806323b872dd116100e957806323b872dd146101b557806342842e0e146101d15780636352211e146101ed57806370a082311461021d578063715018a61461024d57610116565b806301ffc9a71461011b57806306fdde031461014b578063081812fc14610169578063095ea7b314610199575b600080fd5b61013560048036038101906101309190611d3d565b61037f565b6040516101429190611d85565b60405180910390f35b610153610461565b6040516101609190611e39565b60405180910390f35b610183600480360381019061017e9190611e91565b6104f3565b6040516101909190611eff565b60405180910390f35b6101b360048036038101906101ae9190611f46565b610539565b005b6101cf60048036038101906101ca9190611f86565b610651565b005b6101eb60048036038101906101e69190611f86565b6106b1565b005b61020760048036038101906102029190611e91565b6106d1565b6040516102149190611eff565b60405180910390f35b61023760048036038101906102329190611fd9565b610758565b6040516102449190612015565b60405180910390f35b610255610810565b005b61025f610824565b60405161026c9190611eff565b60405180910390f35b61027d61084e565b60405161028a9190611e39565b60405180910390f35b6102ad60048036038101906102a8919061205c565b6108e0565b005b6102c960048036038101906102c491906121d1565b6108f6565b005b6102e560048036038101906102e091906122ce565b61092f565b005b61030160048036038101906102fc9190611e91565b610991565b60405161030e9190611e39565b60405180910390f35b610331600480360381019061032c91906121d1565b6109a3565b005b61034d60048036038101906103489190612351565b6109d4565b60405161035a9190611d85565b60405180910390f35b61037d60048036038101906103789190611fd9565b610a68565b005b60007f80ac58cd000000000000000000000000000000000000000000000000000000007bffffffffffffffffffffffffffffffffffffffffffffffffffffffff1916827bffffffffffffffffffffffffffffffffffffffffffffffffffffffff1916148061044a57507f5b5e139f000000000000000000000000000000000000000000000000000000007bffffffffffffffffffffffffffffffffffffffffffffffffffffffff1916827bffffffffffffffffffffffffffffffffffffffffffffffffffffffff1916145b8061045a575061045982610aec565b5b9050919050565b606060008054610470906123c0565b80601f016020809104026020016040519081016040528092919081815260200182805461049c906123c0565b80156104e95780601f106104be576101008083540402835291602001916104e9565b820191906000526020600020905b8154815290600101906020018083116104cc57829003601f168201915b5050505050905090565b60006104fe82610b56565b6004600083815260200190815260200160002060009054906101000a900473ffffffffffffffffffffffffffffffffffffffff169050919050565b6000610544826106d1565b90508073ffffffffffffffffffffffffffffffffffffffff168373ffffffffffffffffffffffffffffffffffffffff1614156105b5576040517f08c379a00000000000000000000000000000000000000000000000000000000081526004016105ac90612464565b60405180910390fd5b8073ffffffffffffffffffffffffffffffffffffffff166105d4610ba1565b73ffffffffffffffffffffffffffffffffffffffff1614806106035750610602816105fd610ba1565b6109d4565b5b610642576040517f08c379a0000000000000000000000000000000000000000000000000000000008152600401610639906124f6565b60405180910390fd5b61064c8383610ba9565b505050565b61066261065c610ba1565b82610c62565b6106a1576040517f08c379a000000000000000000000000000000000000000000000000000000000815260040161069890612588565b60405180910390fd5b6106ac838383610cf7565b505050565b6106cc8383836040518060200160405280600081525061092f565b505050565b6000806106dd83610ff1565b9050600073ffffffffffffffffffffffffffffffffffffffff168173ffffffffffffffffffffffffffffffffffffffff16141561074f576040517f08c379a0000000000000000000000000000000000000000000000000000000008152600401610746906125f4565b60405180910390fd5b80915050919050565b60008073ffffffffffffffffffffffffffffffffffffffff168273ffffffffffffffffffffffffffffffffffffffff1614156107c9576040517f08c379a00000000000000000000000000000000000000000000000000000000081526004016107c090612686565b60405180910390fd5b600360008373ffffffffffffffffffffffffffffffffffffffff1673ffffffffffffffffffffffffffffffffffffffff168152602001908152602001600020549050919050565b61081861102e565b61082260006110ac565b565b6000600760009054906101000a900473ffffffffffffffffffffffffffffffffffffffff16905090565b60606001805461085d906123c0565b80601f0160208091040260200160405190810160405280929190818152602001828054610889906123c0565b80156108d65780601f106108ab576101008083540402835291602001916108d6565b820191906000526020600020905b8154815290600101906020018083116108b957829003601f168201915b5050505050905090565b6108f26108eb610ba1565b8383611172565b5050565b6108fe61102e565b600061090a60086112df565b905061091660086112ed565b6109208382611303565b61092a8183611321565b505050565b61094061093a610ba1565b83610c62565b61097f576040517f08c379a000000000000000000000000000000000000000000000000000000000815260040161097690612588565b60405180910390fd5b61098b84848484611395565b50505050565b606061099c826113f1565b9050919050565b60006109af60086112df565b90506109bb60086112ed565b6109c58382611303565b6109cf8183611321565b505050565b6000600560008473ffffffffffffffffffffffffffffffffffffffff1673ffffffffffffffffffffffffffffffffffffffff16815260200190815260200160002060008373ffffffffffffffffffffffffffffffffffffffff1673ffffffffffffffffffffffffffffffffffffffff16815260200190815260200160002060009054906101000a900460ff16905092915050565b610a7061102e565b600073ffffffffffffffffffffffffffffffffffffffff168173ffffffffffffffffffffffffffffffffffffffff161415610ae0576040517f08c379a0000000000000000000000000000000000000000000000000000000008152600401610ad790612718565b60405180910390fd5b610ae9816110ac565b50565b60007f01ffc9a7000000000000000000000000000000000000000000000000000000007bffffffffffffffffffffffffffffffffffffffffffffffffffffffff1916827bffffffffffffffffffffffffffffffffffffffffffffffffffffffff1916149050919050565b610b5f81611504565b610b9e576040517f08c379a0000000000000000000000000000000000000000000000000000000008152600401610b95906125f4565b60405180910390fd5b50565b600033905090565b816004600083815260200190815260200160002060006101000a81548173ffffffffffffffffffffffffffffffffffffffff021916908373ffffffffffffffffffffffffffffffffffffffff160217905550808273ffffffffffffffffffffffffffffffffffffffff16610c1c836106d1565b73ffffffffffffffffffffffffffffffffffffffff167f8c5be1e5ebec7d5bd14f71427d1e84f3dd0314c0f7b2291e5b200ac8c7c3b92560405160405180910390a45050565b600080610c6e836106d1565b90508073ffffffffffffffffffffffffffffffffffffffff168473ffffffffffffffffffffffffffffffffffffffff161480610cb05750610caf81856109d4565b5b80610cee57508373ffffffffffffffffffffffffffffffffffffffff16610cd6846104f3565b73ffffffffffffffffffffffffffffffffffffffff16145b91505092915050565b8273ffffffffffffffffffffffffffffffffffffffff16610d17826106d1565b73ffffffffffffffffffffffffffffffffffffffff1614610d6d576040517f08c379a0000000000000000000000000000000000000000000000000000000008152600401610d64906127aa565b60405180910390fd5b600073ffffffffffffffffffffffffffffffffffffffff168273ffffffffffffffffffffffffffffffffffffffff161415610ddd576040517f08c379a0000000000000000000000000000000000000000000000000000000008152600401610dd49061283c565b60405180910390fd5b610dea8383836001611545565b8273ffffffffffffffffffffffffffffffffffffffff16610e0a826106d1565b73ffffffffffffffffffffffffffffffffffffffff1614610e60576040517f08c379a0000000000000000000000000000000000000000000000000000000008152600401610e57906127aa565b60405180910390fd5b6004600082815260200190815260200160002060006101000a81549073ffffffffffffffffffffffffffffffffffffffff02191690556001600360008573ffffffffffffffffffffffffffffffffffffffff1673ffffffffffffffffffffffffffffffffffffffff168152602001908152602001600020600082825403925050819055506001600360008473ffffffffffffffffffffffffffffffffffffffff1673ffffffffffffffffffffffffffffffffffffffff16815260200190815260200160002060008282540192505081905550816002600083815260200190815260200160002060006101000a81548173ffffffffffffffffffffffffffffffffffffffff021916908373ffffffffffffffffffffffffffffffffffffffff160217905550808273ffffffffffffffffffffffffffffffffffffffff168473ffffffffffffffffffffffffffffffffffffffff167fddf252ad1be2c89b69c2b068fc378daa952ba7f163c4a11628f55a4df523b3ef60405160405180910390a4610fec838383600161154b565b505050565b60006002600083815260200190815260200160002060009054906101000a900473ffffffffffffffffffffffffffffffffffffffff169050919050565b611036610ba1565b73ffffffffffffffffffffffffffffffffffffffff16611054610824565b73ffffffffffffffffffffffffffffffffffffffff16146110aa576040517f08c379a00000000000000000000000000000000000000000000000000000000081526004016110a1906128a8565b60405180910390fd5b565b6000600760009054906101000a900473ffffffffffffffffffffffffffffffffffffffff16905081600760006101000a81548173ffffffffffffffffffffffffffffffffffffffff021916908373ffffffffffffffffffffffffffffffffffffffff1602179055508173ffffffffffffffffffffffffffffffffffffffff168173ffffffffffffffffffffffffffffffffffffffff167f8be0079c531659141344cd1fd0a4f28419497f9722a3daafe3b4186f6b6457e060405160405180910390a35050565b8173ffffffffffffffffffffffffffffffffffffffff168373ffffffffffffffffffffffffffffffffffffffff1614156111e1576040517f08c379a00000000000000000000000000000000000000000000000000000000081526004016111d890612914565b60405180910390fd5b80600560008573ffffffffffffffffffffffffffffffffffffffff1673ffffffffffffffffffffffffffffffffffffffff16815260200190815260200160002060008473ffffffffffffffffffffffffffffffffffffffff1673ffffffffffffffffffffffffffffffffffffffff16815260200190815260200160002060006101000a81548160ff0219169083151502179055508173ffffffffffffffffffffffffffffffffffffffff168373ffffffffffffffffffffffffffffffffffffffff167f17307eab39ab6107e8899845ad3d59bd9653f200f220920489ca2b5937696c31836040516112d29190611d85565b60405180910390a3505050565b600081600001549050919050565b6001816000016000828254019250508190555050565b61131d828260405180602001604052806000815250611551565b5050565b61132a82611504565b611369576040517f08c379a0000000000000000000000000000000000000000000000000000000008152600401611360906129a6565b60405180910390fd5b80600660008481526020019081526020016000209080519060200190611390929190611c2e565b505050565b6113a0848484610cf7565b6113ac848484846115ac565b6113eb576040517f08c379a00000000000000000000000000000000000000000000000000000000081526004016113e290612a38565b60405180910390fd5b50505050565b60606113fc82610b56565b600060066000848152602001908152602001600020805461141c906123c0565b80601f0160208091040260200160405190810160405280929190818152602001828054611448906123c0565b80156114955780601f1061146a57610100808354040283529160200191611495565b820191906000526020600020905b81548152906001019060200180831161147857829003601f168201915b5050505050905060006114a6611743565b90506000815114156114bc5781925050506114ff565b6000825111156114f15780826040516020016114d9929190612a94565b604051602081830303815290604052925050506114ff565b6114fa8461175a565b925050505b919050565b60008073ffffffffffffffffffffffffffffffffffffffff1661152683610ff1565b73ffffffffffffffffffffffffffffffffffffffff1614159050919050565b50505050565b50505050565b61155b83836117c2565b61156860008484846115ac565b6115a7576040517f08c379a000000000000000000000000000000000000000000000000000000000815260040161159e90612a38565b60405180910390fd5b505050565b60006115cd8473ffffffffffffffffffffffffffffffffffffffff166119e0565b15611736578373ffffffffffffffffffffffffffffffffffffffff1663150b7a026115f6610ba1565b8786866040518563ffffffff1660e01b81526004016116189493929190612b0d565b602060405180830381600087803b15801561163257600080fd5b505af192505050801561166357506040513d601f19601f820116820180604052508101906116609190612b6e565b60015b6116e6573d8060008114611693576040519150601f19603f3d011682016040523d82523d6000602084013e611698565b606091505b506000815114156116de576040517f08c379a00000000000000000000000000000000000000000000000000000000081526004016116d590612a38565b60405180910390fd5b805181602001fd5b63150b7a0260e01b7bffffffffffffffffffffffffffffffffffffffffffffffffffffffff1916817bffffffffffffffffffffffffffffffffffffffffffffffffffffffff19161491505061173b565b600190505b949350505050565b606060405180602001604052806000815250905090565b606061176582610b56565b600061176f611743565b9050600081511161178f57604051806020016040528060008152506117ba565b8061179984611a03565b6040516020016117aa929190612a94565b6040516020818303038152906040525b915050919050565b600073ffffffffffffffffffffffffffffffffffffffff168273ffffffffffffffffffffffffffffffffffffffff161415611832576040517f08c379a000000000000000000000000000000000000000000000000000000000815260040161182990612be7565b60405180910390fd5b61183b81611504565b1561187b576040517f08c379a000000000000000000000000000000000000000000000000000000000815260040161187290612c53565b60405180910390fd5b611889600083836001611545565b61189281611504565b156118d2576040517f08c379a00000000000000000000000000000000000000000000000000000000081526004016118c990612c53565b60405180910390fd5b6001600360008473ffffffffffffffffffffffffffffffffffffffff1673ffffffffffffffffffffffffffffffffffffffff16815260200190815260200160002060008282540192505081905550816002600083815260200190815260200160002060006101000a81548173ffffffffffffffffffffffffffffffffffffffff021916908373ffffffffffffffffffffffffffffffffffffffff160217905550808273ffffffffffffffffffffffffffffffffffffffff16600073ffffffffffffffffffffffffffffffffffffffff167fddf252ad1be2c89b69c2b068fc378daa952ba7f163c4a11628f55a4df523b3ef60405160405180910390a46119dc60008383600161154b565b5050565b6000808273ffffffffffffffffffffffffffffffffffffffff163b119050919050565b606060006001611a1284611adb565b01905060008167ffffffffffffffff811115611a3157611a306120a6565b5b6040519080825280601f01601f191660200182016040528015611a635781602001600182028036833780820191505090505b509050600082602001820190505b600115611ad0578080600190039150507f3031323334353637383961626364656600000000000000000000000000000000600a86061a8153600a8581611aba57611ab9612c73565b5b0494506000851415611acb57611ad0565b611a71565b819350505050919050565b600080600090507a184f03e93ff9f4daa797ed6e38ed64bf6a1f0100000000000000008310611b39577a184f03e93ff9f4daa797ed6e38ed64bf6a1f0100000000000000008381611b2f57611b2e612c73565b5b0492506040810190505b6d04ee2d6d415b85acef81000000008310611b76576d04ee2d6d415b85acef81000000008381611b6c57611b6b612c73565b5b0492506020810190505b662386f26fc100008310611ba557662386f26fc100008381611b9b57611b9a612c73565b5b0492506010810190505b6305f5e1008310611bce576305f5e1008381611bc457611bc3612c73565b5b0492506008810190505b6127108310611bf3576127108381611be957611be8612c73565b5b0492506004810190505b60648310611c165760648381611c0c57611c0b612c73565b5b0492506002810190505b600a8310611c25576001810190505b80915050919050565b828054611c3a906123c0565b90600052602060002090601f016020900481019282611c5c5760008555611ca3565b82601f10611c7557805160ff1916838001178555611ca3565b82800160010185558215611ca3579182015b82811115611ca2578251825591602001919060010190611c87565b5b509050611cb09190611cb4565b5090565b5b80821115611ccd576000816000905550600101611cb5565b5090565b6000604051905090565b600080fd5b600080fd5b60007fffffffff0000000000000000000000000000000000000000000000000000000082169050919050565b611d1a81611ce5565b8114611d2557600080fd5b50565b600081359050611d3781611d11565b92915050565b600060208284031215611d5357611d52611cdb565b5b6000611d6184828501611d28565b91505092915050565b60008115159050919050565b611d7f81611d6a565b82525050565b6000602082019050611d9a6000830184611d76565b92915050565b600081519050919050565b600082825260208201905092915050565b60005b83811015611dda578082015181840152602081019050611dbf565b83811115611de9576000848401525b50505050565b6000601f19601f8301169050919050565b6000611e0b82611da0565b611e158185611dab565b9350611e25818560208601611dbc565b611e2e81611def565b840191505092915050565b60006020820190508181036000830152611e538184611e00565b905092915050565b6000819050919050565b611e6e81611e5b565b8114611e7957600080fd5b50565b600081359050611e8b81611e65565b92915050565b600060208284031215611ea757611ea6611cdb565b5b6000611eb584828501611e7c565b91505092915050565b600073ffffffffffffffffffffffffffffffffffffffff82169050919050565b6000611ee982611ebe565b9050919050565b611ef981611ede565b82525050565b6000602082019050611f146000830184611ef0565b92915050565b611f2381611ede565b8114611f2e57600080fd5b50565b600081359050611f4081611f1a565b92915050565b60008060408385031215611f5d57611f5c611cdb565b5b6000611f6b85828601611f31565b9250506020611f7c85828601611e7c565b9150509250929050565b600080600060608486031215611f9f57611f9e611cdb565b5b6000611fad86828701611f31565b9350506020611fbe86828701611f31565b9250506040611fcf86828701611e7c565b9150509250925092565b600060208284031215611fef57611fee611cdb565b5b6000611ffd84828501611f31565b91505092915050565b61200f81611e5b565b82525050565b600060208201905061202a6000830184612006565b92915050565b61203981611d6a565b811461204457600080fd5b50565b60008135905061205681612030565b92915050565b6000806040838503121561207357612072611cdb565b5b600061208185828601611f31565b925050602061209285828601612047565b9150509250929050565b600080fd5b600080fd5b7f4e487b7100000000000000000000000000000000000000000000000000000000600052604160045260246000fd5b6120de82611def565b810181811067ffffffffffffffff821117156120fd576120fc6120a6565b5b80604052505050565b6000612110611cd1565b905061211c82826120d5565b919050565b600067ffffffffffffffff82111561213c5761213b6120a6565b5b61214582611def565b9050602081019050919050565b82818337600083830152505050565b600061217461216f84612121565b612106565b9050828152602081018484840111156121905761218f6120a1565b5b61219b848285612152565b509392505050565b600082601f8301126121b8576121b761209c565b5b81356121c8848260208601612161565b91505092915050565b600080604083850312156121e8576121e7611cdb565b5b60006121f685828601611f31565b925050602083013567ffffffffffffffff81111561221757612216611ce0565b5b612223858286016121a3565b9150509250929050565b600067ffffffffffffffff821115612248576122476120a6565b5b61225182611def565b9050602081019050919050565b600061227161226c8461222d565b612106565b90508281526020810184848401111561228d5761228c6120a1565b5b612298848285612152565b509392505050565b600082601f8301126122b5576122b461209c565b5b81356122c584826020860161225e565b91505092915050565b600080600080608085870312156122e8576122e7611cdb565b5b60006122f687828801611f31565b945050602061230787828801611f31565b935050604061231887828801611e7c565b925050606085013567ffffffffffffffff81111561233957612338611ce0565b5b612345878288016122a0565b91505092959194509250565b6000806040838503121561236857612367611cdb565b5b600061237685828601611f31565b925050602061238785828601611f31565b9150509250929050565b7f4e487b7100000000000000000000000000000000000000000000000000000000600052602260045260246000fd5b600060028204905060018216806123d857607f821691505b602082108114156123ec576123eb612391565b5b50919050565b7f4552433732313a20617070726f76616c20746f2063757272656e74206f776e6560008201527f7200000000000000000000000000000000000000000000000000000000000000602082015250565b600061244e602183611dab565b9150612459826123f2565b604082019050919050565b6000602082019050818103600083015261247d81612441565b9050919050565b7f4552433732313a20617070726f76652063616c6c6572206973206e6f7420746f60008201527f6b656e206f776e6572206f7220617070726f76656420666f7220616c6c000000602082015250565b60006124e0603d83611dab565b91506124eb82612484565b604082019050919050565b6000602082019050818103600083015261250f816124d3565b9050919050565b7f4552433732313a2063616c6c6572206973206e6f7420746f6b656e206f776e6560008201527f72206f7220617070726f76656400000000000000000000000000000000000000602082015250565b6000612572602d83611dab565b915061257d82612516565b604082019050919050565b600060208201905081810360008301526125a181612565565b9050919050565b7f4552433732313a20696e76616c696420746f6b656e2049440000000000000000600082015250565b60006125de601883611dab565b91506125e9826125a8565b602082019050919050565b6000602082019050818103600083015261260d816125d1565b9050919050565b7f4552433732313a2061646472657373207a65726f206973206e6f74206120766160008201527f6c6964206f776e65720000000000000000000000000000000000000000000000602082015250565b6000612670602983611dab565b915061267b82612614565b604082019050919050565b6000602082019050818103600083015261269f81612663565b9050919050565b7f4f776e61626c653a206e6577206f776e657220697320746865207a65726f206160008201527f6464726573730000000000000000000000000000000000000000000000000000602082015250565b6000612702602683611dab565b915061270d826126a6565b604082019050919050565b60006020820190508181036000830152612731816126f5565b9050919050565b7f4552433732313a207472616e736665722066726f6d20696e636f72726563742060008201527f6f776e6572000000000000000000000000000000000000000000000000000000602082015250565b6000612794602583611dab565b915061279f82612738565b604082019050919050565b600060208201905081810360008301526127c381612787565b9050919050565b7f4552433732313a207472616e7366657220746f20746865207a65726f2061646460008201527f7265737300000000000000000000000000000000000000000000000000000000602082015250565b6000612826602483611dab565b9150612831826127ca565b604082019050919050565b6000602082019050818103600083015261285581612819565b9050919050565b7f4f776e61626c653a2063616c6c6572206973206e6f7420746865206f776e6572600082015250565b6000612892602083611dab565b915061289d8261285c565b602082019050919050565b600060208201905081810360008301526128c181612885565b9050919050565b7f4552433732313a20617070726f766520746f2063616c6c657200000000000000600082015250565b60006128fe601983611dab565b9150612909826128c8565b602082019050919050565b6000602082019050818103600083015261292d816128f1565b9050919050565b7f45524337323155524953746f726167653a2055524920736574206f66206e6f6e60008201527f6578697374656e7420746f6b656e000000000000000000000000000000000000602082015250565b6000612990602e83611dab565b915061299b82612934565b604082019050919050565b600060208201905081810360008301526129bf81612983565b9050919050565b7f4552433732313a207472616e7366657220746f206e6f6e20455243373231526560008201527f63656976657220696d706c656d656e7465720000000000000000000000000000602082015250565b6000612a22603283611dab565b9150612a2d826129c6565b604082019050919050565b60006020820190508181036000830152612a5181612a15565b9050919050565b600081905092915050565b6000612a6e82611da0565b612a788185612a58565b9350612a88818560208601611dbc565b80840191505092915050565b6000612aa08285612a63565b9150612aac8284612a63565b91508190509392505050565b600081519050919050565b600082825260208201905092915050565b6000612adf82612ab8565b612ae98185612ac3565b9350612af9818560208601611dbc565b612b0281611def565b840191505092915050565b6000608082019050612b226000830187611ef0565b612b2f6020830186611ef0565b612b3c6040830185612006565b8181036060830152612b4e8184612ad4565b905095945050505050565b600081519050612b6881611d11565b92915050565b600060208284031215612b8457612b83611cdb565b5b6000612b9284828501612b59565b91505092915050565b7f4552433732313a206d696e7420746f20746865207a65726f2061646472657373600082015250565b6000612bd1602083611dab565b9150612bdc82612b9b565b602082019050919050565b60006020820190508181036000830152612c0081612bc4565b9050919050565b7f4552433732313a20746f6b656e20616c7265616479206d696e74656400000000600082015250565b6000612c3d601c83611dab565b9150612c4882612c07565b602082019050919050565b60006020820190508181036000830152612c6c81612c30565b9050919050565b7f4e487b7100000000000000000000000000000000000000000000000000000000600052601260045260246000fdfea264697066735822122034fa6c73d561723b4442186bd6f9fa0a9479700a8079f7dcde2c15fd5e84c19864736f6c63430008090033",
  "linkReferences": {},
  "deployedLinkReferences": {}
}