{
  "_format": "hh-sol-artifact-1",
  "contractName": "VideoGamesStore",
  "sourceName": "contracts/VideoGamesStore.sol",
  "abi": [
    {
      "inputs": [],
      "stateMutability": "nonpayable",
      "type": "constructor"
    },
    {
      "anonymous": false,
      "inputs": [
        {
          "indexed": true,
          "internalType": "address",
          "name": "sender",
          "type": "address"
        },
        {
          "indexed": false,
          "internalType": "string",
          "name": "message",
          "type": "string"
        }
      ],
      "name": "Log",
      "type": "event"
    },
    {
      "anonymous": false,
      "inputs": [
        {
          "indexed": true,
          "internalType": "string",
          "name": "trxDescription",
          "type": "string"
        },
        {
          "indexed": false,
          "internalType": "string",
          "name": "videoGame",
          "type": "string"
        },
        {
          "components": [
            {
              "internalType": "uint256",
              "name": "stock",
              "type": "uint256"
            },
            {
              "internalType": "uint256",
              "name": "price",
              "type": "uint256"
            }
          ],
          "indexed": false,
          "internalType": "struct VideoGamesStore.VideoGame",
          "name": "videoGameData",
          "type": "tuple"
        },
        {
          "indexed": false,
          "internalType": "address",
          "name": "sender",
          "type": "address"
        }
      ],
      "name": "personalLogger",
      "type": "event"
    },
    {
      "inputs": [
        {
          "internalType": "string",
          "name": "_videoGame",
          "type": "string"
        },
        {
          "internalType": "uint256",
          "name": "_stock",
          "type": "uint256"
        },
        {
          "internalType": "uint256",
          "name": "_price",
          "type": "uint256"
        }
      ],
      "name": "addGame",
      "outputs": [],
      "stateMutability": "nonpayable",
      "type": "function"
    },
    {
      "inputs": [
        {
          "internalType": "string",
          "name": "_videoGame",
          "type": "string"
        }
      ],
      "name": "deliverGame",
      "outputs": [],
      "stateMutability": "payable",
      "type": "function"
    },
    {
      "inputs": [],
      "name": "getCustomerGames",
      "outputs": [
        {
          "internalType": "string[]",
          "name": "",
          "type": "string[]"
        }
      ],
      "stateMutability": "view",
      "type": "function"
    },
    {
      "inputs": [],
      "name": "getGameList",
      "outputs": [
        {
          "internalType": "string[]",
          "name": "",
          "type": "string[]"
        }
      ],
      "stateMutability": "view",
      "type": "function"
    },
    {
      "inputs": [
        {
          "internalType": "string",
          "name": "_videoGame",
          "type": "string"
        }
      ],
      "name": "getGamePrice",
      "outputs": [
        {
          "internalType": "uint256",
          "name": "",
          "type": "uint256"
        }
      ],
      "stateMutability": "view",
      "type": "function"
    },
    {
      "inputs": [],
      "name": "getStoreBalance",
      "outputs": [
        {
          "internalType": "uint256",
          "name": "",
          "type": "uint256"
        }
      ],
      "stateMutability": "view",
      "type": "function"
    },
    {
      "inputs": [
        {
          "internalType": "address payable",
          "name": "_to",
          "type": "address"
        },
        {
          "internalType": "string",
          "name": "_videoGame",
          "type": "string"
        }
      ],
      "name": "receiveGame",
      "outputs": [],
      "stateMutability": "nonpayable",
      "type": "function"
    },
    {
      "inputs": [],
      "name": "storeOwner",
      "outputs": [
        {
          "internalType": "address",
          "name": "",
          "type": "address"
        }
      ],
      "stateMutability": "view",
      "type": "function"
    }
  ],
  "bytecode": "0x608060405234801561001057600080fd5b50336000806101000a81548173ffffffffffffffffffffffffffffffffffffffff021916908373ffffffffffffffffffffffffffffffffffffffff160217905550611a67806100606000396000f3fe60806040526004361061007b5760003560e01c8063ba7729651161004e578063ba77296514610119578063bac5dd6514610144578063f05fae6814610181578063f8ea5adc146101ac5761007b565b8063818fb3e014610080578063a8ccf2db146100ab578063aed2d918146100d4578063b6b0ff0b146100f0575b600080fd5b34801561008c57600080fd5b506100956101d7565b6040516100a29190610c97565b60405180910390f35b3480156100b757600080fd5b506100d260048036038101906100cd9190610e4a565b6101fb565b005b6100ee60048036038101906100e99190610ea6565b6104d3565b005b3480156100fc57600080fd5b5061011760048036038101906101129190610f25565b610708565b005b34801561012557600080fd5b5061012e6108c2565b60405161013b91906110de565b60405180910390f35b34801561015057600080fd5b5061016b60048036038101906101669190610ea6565b61099b565b604051610178919061110f565b60405180910390f35b34801561018d57600080fd5b506101966109c6565b6040516101a3919061110f565b60405180910390f35b3480156101b857600080fd5b506101c1610a5d565b6040516101ce91906110de565b60405180910390f35b60008054906101000a900473ffffffffffffffffffffffffffffffffffffffff1681565b60405161020790611181565b60405180910390207fb8f0386601d73079eea7c4e091e458c4501a60add284d10fe5997af2488f2f958260028460405161024191906111c7565b90815260200160405180910390203360405161025f939291906112af565b60405180910390a2600160028260405161027991906111c7565b90815260200160405180910390206000016000828254610299919061131c565b9250508190555060005b600360003373ffffffffffffffffffffffffffffffffffffffff1673ffffffffffffffffffffffffffffffffffffffff1681526020019081526020016000208054905081101561041a57816040516020016102fe91906111c7565b60405160208183030381529060405280519060200120600360003373ffffffffffffffffffffffffffffffffffffffff1673ffffffffffffffffffffffffffffffffffffffff168152602001908152602001600020828154811061036557610364611372565b5b9060005260206000200160405160200161037f9190611496565b60405160208183030381529060405280519060200120141561040757600360003373ffffffffffffffffffffffffffffffffffffffff1673ffffffffffffffffffffffffffffffffffffffff16815260200190815260200160002081815481106103ec576103eb611372565b5b9060005260206000200160006104029190610b73565b61041a565b8080610412906114ad565b9150506102a3565b508173ffffffffffffffffffffffffffffffffffffffff166108fc60028360405161044591906111c7565b9081526020016040518091039020600101549081150290604051600060405180830381858888f19350505050158015610482573d6000803e3d6000fd5b503373ffffffffffffffffffffffffffffffffffffffff167f0738f4da267a110d810e6e89fc59e46be6de0c37b1d5cd559b267dc3688e74e06040516104c790611568565b60405180910390a25050565b6040516104df906115d4565b60405180910390207fb8f0386601d73079eea7c4e091e458c4501a60add284d10fe5997af2488f2f958260028460405161051991906111c7565b908152602001604051809103902033604051610537939291906112af565b60405180910390a260028160405161054f91906111c7565b90815260200160405180910390206001015434146105a2576040517f08c379a000000000000000000000000000000000000000000000000000000000815260040161059990611635565b60405180910390fd5b60006002826040516105b491906111c7565b9081526020016040518091039020600001541015610607576040517f08c379a00000000000000000000000000000000000000000000000000000000081526004016105fe906116c7565b60405180910390fd5b600160028260405161061991906111c7565b9081526020016040518091039020600001600082825461063991906116e7565b92505081905550600360003373ffffffffffffffffffffffffffffffffffffffff1673ffffffffffffffffffffffffffffffffffffffff168152602001908152602001600020819080600181540180825580915050600190039060005260206000200160009091909190915090805190602001906106b8929190610bb3565b503373ffffffffffffffffffffffffffffffffffffffff167f0738f4da267a110d810e6e89fc59e46be6de0c37b1d5cd559b267dc3688e74e06040516106fd9061178d565b60405180910390a250565b60008054906101000a900473ffffffffffffffffffffffffffffffffffffffff1673ffffffffffffffffffffffffffffffffffffffff163373ffffffffffffffffffffffffffffffffffffffff1614610796576040517f08c379a000000000000000000000000000000000000000000000000000000000815260040161078d90611845565b60405180910390fd5b600060405180604001604052808481526020018381525090506040516107bb906118b1565b60405180910390207fb8f0386601d73079eea7c4e091e458c4501a60add284d10fe5997af2488f2f958583336040516107f6939291906118f5565b60405180910390a28060028560405161080f91906111c7565b9081526020016040518091039020600082015181600001556020820151816001015590505060018490806001815401808255809150506001900390600052602060002001600090919091909150908051906020019061086f929190610bb3565b503373ffffffffffffffffffffffffffffffffffffffff167f0738f4da267a110d810e6e89fc59e46be6de0c37b1d5cd559b267dc3688e74e06040516108b49061197f565b60405180910390a250505050565b60606001805480602002602001604051908101604052809291908181526020016000905b82821015610992578382906000526020600020018054610905906113d0565b80601f0160208091040260200160405190810160405280929190818152602001828054610931906113d0565b801561097e5780601f106109535761010080835404028352916020019161097e565b820191906000526020600020905b81548152906001019060200180831161096157829003601f168201915b5050505050815260200190600101906108e6565b50505050905090565b60006002826040516109ad91906111c7565b9081526020016040518091039020600101549050919050565b60008060009054906101000a900473ffffffffffffffffffffffffffffffffffffffff1673ffffffffffffffffffffffffffffffffffffffff163373ffffffffffffffffffffffffffffffffffffffff1614610a57576040517f08c379a0000000000000000000000000000000000000000000000000000000008152600401610a4e90611a11565b60405180910390fd5b47905090565b6060600360003373ffffffffffffffffffffffffffffffffffffffff1673ffffffffffffffffffffffffffffffffffffffff168152602001908152602001600020805480602002602001604051908101604052809291908181526020016000905b82821015610b6a578382906000526020600020018054610add906113d0565b80601f0160208091040260200160405190810160405280929190818152602001828054610b09906113d0565b8015610b565780601f10610b2b57610100808354040283529160200191610b56565b820191906000526020600020905b815481529060010190602001808311610b3957829003601f168201915b505050505081526020019060010190610abe565b50505050905090565b508054610b7f906113d0565b6000825580601f10610b915750610bb0565b601f016020900490600052602060002090810190610baf9190610c39565b5b50565b828054610bbf906113d0565b90600052602060002090601f016020900481019282610be15760008555610c28565b82601f10610bfa57805160ff1916838001178555610c28565b82800160010185558215610c28579182015b82811115610c27578251825591602001919060010190610c0c565b5b509050610c359190610c39565b5090565b5b80821115610c52576000816000905550600101610c3a565b5090565b600073ffffffffffffffffffffffffffffffffffffffff82169050919050565b6000610c8182610c56565b9050919050565b610c9181610c76565b82525050565b6000602082019050610cac6000830184610c88565b92915050565b6000604051905090565b600080fd5b600080fd5b6000610cd182610c56565b9050919050565b610ce181610cc6565b8114610cec57600080fd5b50565b600081359050610cfe81610cd8565b92915050565b600080fd5b600080fd5b6000601f19601f8301169050919050565b7f4e487b7100000000000000000000000000000000000000000000000000000000600052604160045260246000fd5b610d5782610d0e565b810181811067ffffffffffffffff82111715610d7657610d75610d1f565b5b80604052505050565b6000610d89610cb2565b9050610d958282610d4e565b919050565b600067ffffffffffffffff821115610db557610db4610d1f565b5b610dbe82610d0e565b9050602081019050919050565b82818337600083830152505050565b6000610ded610de884610d9a565b610d7f565b905082815260208101848484011115610e0957610e08610d09565b5b610e14848285610dcb565b509392505050565b600082601f830112610e3157610e30610d04565b5b8135610e41848260208601610dda565b91505092915050565b60008060408385031215610e6157610e60610cbc565b5b6000610e6f85828601610cef565b925050602083013567ffffffffffffffff811115610e9057610e8f610cc1565b5b610e9c85828601610e1c565b9150509250929050565b600060208284031215610ebc57610ebb610cbc565b5b600082013567ffffffffffffffff811115610eda57610ed9610cc1565b5b610ee684828501610e1c565b91505092915050565b6000819050919050565b610f0281610eef565b8114610f0d57600080fd5b50565b600081359050610f1f81610ef9565b92915050565b600080600060608486031215610f3e57610f3d610cbc565b5b600084013567ffffffffffffffff811115610f5c57610f5b610cc1565b5b610f6886828701610e1c565b9350506020610f7986828701610f10565b9250506040610f8a86828701610f10565b9150509250925092565b600081519050919050565b600082825260208201905092915050565b6000819050602082019050919050565b600081519050919050565b600082825260208201905092915050565b60005b83811015610ffa578082015181840152602081019050610fdf565b83811115611009576000848401525b50505050565b600061101a82610fc0565b6110248185610fcb565b9350611034818560208601610fdc565b61103d81610d0e565b840191505092915050565b6000611054838361100f565b905092915050565b6000602082019050919050565b600061107482610f94565b61107e8185610f9f565b93508360208202850161109085610fb0565b8060005b858110156110cc57848403895281516110ad8582611048565b94506110b88361105c565b925060208a01995050600181019050611094565b50829750879550505050505092915050565b600060208201905081810360008301526110f88184611069565b905092915050565b61110981610eef565b82525050565b60006020820190506111246000830184611100565b92915050565b600081905092915050565b7f52656365697665207472616e73616374696f6e00000000000000000000000000600082015250565b600061116b60138361112a565b915061117682611135565b601382019050919050565b600061118c8261115e565b9150819050919050565b60006111a182610fc0565b6111ab818561112a565b93506111bb818560208601610fdc565b80840191505092915050565b60006111d38284611196565b915081905092915050565b600082825260208201905092915050565b60006111fa82610fc0565b61120481856111de565b9350611214818560208601610fdc565b61121d81610d0e565b840191505092915050565b60008160001c9050919050565b6000819050919050565b600061125261124d83611228565b611235565b9050919050565b61126281610eef565b82525050565b60408201600080830154905061127d8161123f565b61128a6000860182611259565b506001830154905061129b8161123f565b6112a86020860182611259565b5050505050565b600060808201905081810360008301526112c981866111ef565b90506112d86020830185611268565b6112e56060830184610c88565b949350505050565b7f4e487b7100000000000000000000000000000000000000000000000000000000600052601160045260246000fd5b600061132782610eef565b915061133283610eef565b9250827fffffffffffffffffffffffffffffffffffffffffffffffffffffffffffffffff03821115611367576113666112ed565b5b828201905092915050565b7f4e487b7100000000000000000000000000000000000000000000000000000000600052603260045260246000fd5b7f4e487b7100000000000000000000000000000000000000000000000000000000600052602260045260246000fd5b600060028204905060018216806113e857607f821691505b602082108114156113fc576113fb6113a1565b5b50919050565b60008190508160005260206000209050919050565b60008154611424816113d0565b61142e818661112a565b94506001821660008114611449576001811461145a5761148d565b60ff1983168652818601935061148d565b61146385611402565b60005b8381101561148557815481890152600182019150602081019050611466565b838801955050505b50505092915050565b60006114a28284611417565b915081905092915050565b60006114b882610eef565b91507fffffffffffffffffffffffffffffffffffffffffffffffffffffffffffffffff8214156114eb576114ea6112ed565b5b600182019050919050565b7f52656365697665207472616e73616374696f6e2069732073756363657373667560008201527f6c00000000000000000000000000000000000000000000000000000000000000602082015250565b60006115526021836111de565b915061155d826114f6565b604082019050919050565b6000602082019050818103600083015261158181611545565b9050919050565b7f44656c69766572207472616e73616374696f6e00000000000000000000000000600082015250565b60006115be60138361112a565b91506115c982611588565b601382019050919050565b60006115df826115b1565b9150819050919050565b7f596f75206e65656420706169642074686520636f72726563742076616c756521600082015250565b600061161f6020836111de565b915061162a826115e9565b602082019050919050565b6000602082019050818103600083015261164e81611612565b9050919050565b7f446f6e742068617665206d6f72652073746f636b20666f72207468697320766960008201527f64656f2067616d65210000000000000000000000000000000000000000000000602082015250565b60006116b16029836111de565b91506116bc82611655565b604082019050919050565b600060208201905081810360008301526116e0816116a4565b9050919050565b60006116f282610eef565b91506116fd83610eef565b9250828210156117105761170f6112ed565b5b828203905092915050565b7f44656c69766572207472616e73616374696f6e2069732073756363657373667560008201527f6c00000000000000000000000000000000000000000000000000000000000000602082015250565b60006117776021836111de565b91506117828261171b565b604082019050919050565b600060208201905081810360008301526117a68161176a565b9050919050565b7f596f75206d75737420626520746865206f776e6572206f66207468652073746f60008201527f726520746f2073656520616464206e657720766964656f2067616d6520746f2060208201527f73746f72652e0000000000000000000000000000000000000000000000000000604082015250565b600061182f6046836111de565b915061183a826117ad565b606082019050919050565b6000602082019050818103600083015261185e81611822565b9050919050565b7f416464207472616e73616374696f6e0000000000000000000000000000000000600082015250565b600061189b600f8361112a565b91506118a682611865565b600f82019050919050565b60006118bc8261188e565b9150819050919050565b6040820160008201516118dc6000850182611259565b5060208201516118ef6020850182611259565b50505050565b6000608082019050818103600083015261190f81866111ef565b905061191e60208301856118c6565b61192b6060830184610c88565b949350505050565b7f416464207472616e73616374696f6e206973207375636365737366756c000000600082015250565b6000611969601d836111de565b915061197482611933565b602082019050919050565b600060208201905081810360008301526119988161195c565b9050919050565b7f596f75206d75737420626520746865206f776e6572206f66207468652073746f60008201527f726520746f20736565207468652062616c616e6365206f662073746f72652e00602082015250565b60006119fb603f836111de565b9150611a068261199f565b604082019050919050565b60006020820190508181036000830152611a2a816119ee565b905091905056fea2646970667358221220bf253cbef3ff3f94dcbc18c34cb23338b3396e690552ed5c6010593cf26aa07a64736f6c63430008090033",
  "linkReferences": {},
  "deployedLinkReferences": {}
}